:100000000C945D000C9485000C9485000C94850084
:100010000C9485000C9485000C9485000C9485004C
:100020000C9485000C9485000C9485000C9485003C
:100030000C9485000C9485000C9485000C9485002C
:100040000C94D7020C9485000C9447030C94210364
:100050000C9485000C9485000C9485000C9485000C
:100060000C9485000C94850000000008000201003B
:100070000003040700000000000000000000000072
:10008000250028002B0000000000240027002A0083
:10009000040404040404040402020202020203032E
:1000A0000303030301020408102040800102040836
:1000B0001020010204081020BF0411241FBECFEF3E
:1000C000D8E0DEBFCDBF11E0A0E0B1E0E2E7FDE0A7
:1000D00002C005900D92A831B107D9F721E0A8E13F
:1000E000B1E001C01D92A23CB207E1F710E0CDE5FE
:1000F000D0E004C02197FE010E94AC06CC35D107A8
:10010000C9F70E9479030C94B7060C940000E7EA43
:10011000F0E02491E3E9F0E08491882399F090E005
:10012000880F991FFC01EA57FF4FA591B491FC017C
:10013000E458FF4F859194918FB7F894EC91E22B9E
:10014000EC938FBF0895EBE6F0E09491E7EAF0E0DE
:100150002491E3E9F0E0E491EE2309F43CC0992313
:1001600039F1933091F038F49130A9F0923001F5E3
:1001700094B59F7D12C0973091F09830A1F09430E3
:10018000B9F4909180009F7D03C0909180009F778B
:10019000909380000DC094B59F7794BD09C0909155
:1001A000B0009F7703C09091B0009F7D9093B00006
:1001B000F0E0EE0FFF1FE458FF4FA591B4919FB7F9
:1001C000F894811104C08C912095282302C0EC91F1
:1001D0002E2B2C939FBF08953FB7F8948091210157
:1001E00090912201A0912301B091240126B5A89BF2
:1001F00005C02F3F19F00196A11DB11D3FBFBA2FB9
:10020000A92F982F8827820F911DA11DB11DBC0118
:10021000CD0142E0660F771F881F991F4A95D1F7DD
:1002200008958F929F92AF92BF92CF92DF92EF92FA
:10023000FF926B017C010E94EC004B015C01C11438
:10024000D104E104F104F1F00E94EC00DC01CB01E7
:1002500088199909AA09BB09883E9340A105B105EF
:1002600070F321E0C21AD108E108F10888EE880E87
:1002700083E0981EA11CB11CC114D104E104F10457
:1002800019F7DDCFFF90EF90DF90CF90BF90AF9048
:100290009F908F900895CF92DF92EF92FF920F93ED
:1002A0001F93CF93DF936C017A018B01C0E0D0E004
:1002B000CE15DF0581F0D8016D918D01D601ED914C
:1002C000FC910190F081E02DC6010995892B11F078
:1002D0002196EECF7E01C701DF91CF911F910F9143
:1002E000FF90EF90DF90CF900895089580E090E028
:1002F0000895FC01538D448D252F30E0842F90E02C
:10030000821B930B541710F0CF9608950197089510
:10031000FC01918D828D981761F0828DDF01A80F0D
:10032000B11D5D968C91928D9F5F9F73928F90E02F
:1003300008958FEF9FEF0895FC01918D828D98179E
:1003400031F0828DE80FF11D858D90E008958FEFDB
:100350009FEF0895FC01918D228D892F90E0805CA4
:100360009F4F821B91098F739927089585E291E031
:100370000E94AA0121E0892B09F420E0822F089530
:10038000FC01848DDF01A80FB11DA35ABF4F2C9132
:10039000848D90E001968F739927848FA689B78901
:1003A0002C93A089B1898C91837080648C93938DF8
:1003B000848D981306C00288F389E02D80818F7D9B
:1003C00080830895EF92FF920F931F93CF93DF9353
:1003D000EC0181E0888F9B8D8C8D981305C0E88996
:1003E000F989808185FD26C0F62E0B8D10E00F5F08
:1003F0001F4F0F731127E02E8C8DE8120CC00FB623
:1004000007FCFACFE889F989808185FFF5CFCE0115
:100410000E94C001F1CF8B8DFE01E80FF11DE35A60
:10042000FF4FF0829FB7F8940B8FEA89FB89808198
:1004300080620AC09FB7F894EE89FF896083E889DB
:10044000F98980818370806480839FBF81E090E020
:10045000DF91CF911F910F91FF90EF900895CF936F
:10046000DF93EC01888D8823C9F0EA89FB898081BC
:1004700085FD05C0A889B9898C9186FD0FC00FB68E
:1004800007FCF5CF808185FFF2CFA889B9898C91CF
:1004900085FFEDCFCE010E94C001E7CFDF91CF9164
:1004A000089580E090E0892B29F00E94B601811127
:1004B0000C94000008958F929F92AF92BF920F9379
:1004C0001F93CF93DF93CDB7DEB7A1970FB6F89404
:1004D000DEBF0FBECDBF19A2423008F44AE08E0144
:1004E0000F5D1F4F842E912CA12CB12CA5019401DE
:1004F0000E948A06E62FB901CA0101501109EA30AB
:1005000014F4E05D01C0E95CD801EC93232B242BAB
:10051000252B61F70115110571F0F80101900020FC
:10052000E9F73197AF01401B510BB80185E291E02B
:100530000E944B0102C080E090E0A1960FB6F894B3
:10054000DEBF0FBECDBFDF91CF911F910F91BF9046
:10055000AF909F908F900895CF92DF92EF92FF928D
:10056000CF93DF936B017C016DE285E291E00E9405
:10057000E201EC0166277727CB016C197D098E0912
:100580009F094AE00E945B028C0F9D1FDF91CF9173
:10059000FF90EF90DF90CF90089542E050E064E14B
:1005A00071E085E291E00C944B010E94B2061F922B
:1005B0000F920FB60F9211242F933F938F939F9317
:1005C000AF93BF9380911D0190911E01A0911F01D7
:1005D000B091200130911C0123E0230F2D3720F42E
:1005E0000196A11DB11D05C026E8230F0296A11D8D
:1005F000B11D20931C0180931D0190931E01A093B7
:100600001F01B09320018091210190912201A091BE
:100610002301B09124010196A11DB11D80932101F8
:1006200090932201A0932301B0932401BF91AF9135
:100630009F918F913F912F910F900FBE0F901F9020
:1006400018951F920F920FB60F9211242F933F937C
:100650004F935F936F937F938F939F93AF93BF93CA
:10066000EF93FF9385E291E00E94C001FF91EF912B
:10067000BF91AF919F918F917F916F915F914F91BA
:100680003F912F910F900FBE0F901F9018951F92C2
:100690000F920FB60F9211242F938F939F93EF9386
:1006A000FF93E0913501F09136018081E0913B01AB
:1006B000F0913C0182FD12C0908180913E018F5FDC
:1006C0008F7320913F01821751F0E0913E01F0E0DD
:1006D000EB5DFE4F958F80933E0101C08081FF91BD
:1006E000EF919F918F912F910F900FBE0F901F90C0
:1006F0001895789484B5826084BD84B5816084BD8A
:1007000085B5826085BD85B5816085BD80916E00AF
:10071000816080936E0010928100809181008260E0
:10072000809381008091810081608093810080911D
:1007300080008160809380008091B100846080930C
:10074000B1008091B00081608093B00080917A0008
:10075000846080937A0080917A00826080937A002E
:1007600080917A00816080937A0080917A0080681D
:1007700080937A001092C100E0913501F09136012A
:1007800082E08083E0913101F09132011082E091AA
:100790003301F09134018FEC808310923D01E091A0
:1007A0003901F0913A0186E08083E0913701F091C0
:1007B0003801808180618083E0913701F0913801B8
:1007C000808188608083E0913701F09138018081D9
:1007D00080688083E0913701F091380180818F7DBE
:1007E00080830E9487000BE610E0809100019091C9
:1007F000010120911A0130911B01280F391F3093FC
:100800001B0120931A011216130694F091958195FD
:100810009109909301018093000110921B011092A5
:100820001A0168EE73E080E090E00E9411010AC0B6
:100830002A3031053CF09195819591099093010101
:100840008093000160911A0170911B01072E000C2A
:10085000880B990B0E9491059B01AC010E941D061B
:100860009B01AC0160E070E08FE793E40E94EC0430
:100870000E945905EB0177FF02C0C0E0D0E0D093A1
:100880001901C09318010E948700209711F480E09D
:1008900004C0CF3FD10521F481E00E94A30042C0F3
:1008A000F80184918330F9F048F48130B9F0823056
:1008B000A1F584B5806284BDC8BD34C08730E9F03D
:1008C000883019F1843049F58091800080628093EE
:1008D0008000D0938B00C0938A0024C084B58068C8
:1008E00084BDC7BD1FC08091800080688093800058
:1008F000D0938900C093880015C08091B0008068B3
:100900008093B000C093B3000DC08091B0008062AE
:100910008093B000C093B40005C0C038D1050CF07E
:10092000BBCFB5CF6091180170911901072E000C53
:10093000880B990B97FF03C00E94AC0203C04AE0EA
:100940000E945B020E94CD0260911A0170911B010E
:10095000072E000C880B990B97FF03C00E94AC0276
:1009600003C04AE00E945B020E94CD026EE170E08B
:1009700080E090E00E9411010E94510236CFE5E232
:10098000F1E01382128288EE93E0A0E0B0E084836D
:100990009583A683B78386E091E09183808385EC7D
:1009A00090E09587848784EC90E09787868780EC39
:1009B00090E0918B808B81EC90E0938B828B82EC2A
:1009C00090E0958B848B86EC90E0978B868B118ED4
:1009D000128E138E148E08955058BB27AA270E949A
:1009E00004050C94E3050E94D50538F00E94DC054F
:1009F00020F039F49F3F19F426F40C94D2050EF43C
:100A0000E095E7FB0C94CC05E92F0E94F40558F320
:100A1000BA17620773078407950720F079F4A6F5E3
:100A20000C9416060EF4E0950B2EBA2FA02D0B0198
:100A3000B90190010C01CA01A0011124FF27591B23
:100A400099F0593F50F4503E68F11A16F040A22F29
:100A5000232F342F4427585FF3CF4695379527959A
:100A6000A795F0405395C9F77EF41F16BA0B620B99
:100A7000730B840BBAF09150A1F0FF0FBB1F661FE0
:100A8000771F881FC2F70EC0BA0F621F731F841F23
:100A900048F4879577956795B795F7959E3F08F049
:100AA000B0CF9395880F08F09927EE0F979587950B
:100AB00008950E9460056894B1110C94170608957A
:100AC0000E94FC0588F09F5798F0B92F9927B751DD
:100AD000B0F0E1F0660F771F881F991F1AF0BA95E2
:100AE000C9F714C0B13091F00E941606B1E0089524
:100AF0000C941606672F782F8827B85F39F0B93F16
:100B0000CCF3869577956795B395D9F73EF4909594
:100B10008095709561957F4F8F4F9F4F0895E89412
:100B200009C097FB3EF490958095709561957F4F35
:100B30008F4F9F4F9923A9F0F92F96E9BB279395E3
:100B4000F695879577956795B795F111F8CFFAF4F3
:100B5000BB0F11F460FF1BC06F5F7F4F8F4F9F4F24
:100B600016C0882311F096E911C0772321F09EE882
:100B7000872F762F05C0662371F096E8862F70E0E8
:100B800060E02AF09A95660F771F881FDAF7880FC2
:100B90009695879597F9089597F99F6780E870E093
:100BA00060E008959FEF80EC089500240A941616E3
:100BB000170618060906089500240A94121613064B
:100BC000140605060895092E0394000C11F48823D9
:100BD00052F0BB0F40F4BF2B11F460FF04C06F5FF5
:100BE0007F4F8F4F9F4F089557FD9058440F551FCB
:100BF00059F05F3F71F04795880F97FB991F61F09F
:100C00009F3F79F087950895121613061406551F15
:100C1000F2CF4695F1DF08C0161617061806991F81
:100C2000F1CF86957105610508940895E894BB2776
:100C300066277727CB0197F908950E9430060C9418
:100C4000E3050E94D50538F00E94DC0520F09523CD
:100C500011F00C94CC050C94D20511240C941706B9
:100C60000E94F40570F3959FC1F3950F50E0551F56
:100C7000629FF001729FBB27F00DB11D639FAA27F1
:100C8000F00DB11DAA1F649F6627B00DA11D661F40
:100C9000829F2227B00DA11D621F739FB00DA11D61
:100CA000621F839FA00D611D221F749F3327A00D1B
:100CB000611D231F849F600D211D822F762F6A2FB7
:100CC00011249F5750409AF0F1F088234AF0EE0F1C
:100CD000FF1FBB1F661F771F881F91505040A9F749
:100CE0009E3F510580F00C94CC050C9417065F3F95
:100CF000E4F3983ED4F3869577956795B795F79585
:100D0000E7959F5FC1F7FE2B880F911D96958795FC
:100D100097F90895A1E21A2EAA1BBB1BFD010DC075
:100D2000AA1FBB1FEE1FFF1FA217B307E407F5079B
:100D300020F0A21BB30BE40BF50B661F771F881F77
:100D4000991F1A9469F760957095809590959B010D
:100D5000AC01BD01CF010895EE0FFF1F0590F49186
:100D6000E02D099481E090E0F8940C94B706F89493
:020D7000FFCFB3
:100D7200010000000000E2014B0179012F02AA01EB
:080D820088019C010D0A00002C
:107E0000112484B714BE81FFF0D085E080938100F7
:107E100082E08093C00088E18093C10086E0809377
:107E2000C20080E18093C4008EE0C9D0259A86E02C
:107E300020E33CEF91E0309385002093840096BBD3
:107E4000B09BFECF1D9AA8958150A9F7CC24DD24C4
:107E500088248394B5E0AB2EA1E19A2EF3E0BF2EE7
:107E6000A2D0813461F49FD0082FAFD0023811F036
:107E7000013811F484E001C083E08DD089C08234E0
:107E800011F484E103C0853419F485E0A6D080C0E4
:107E9000853579F488D0E82EFF2485D0082F10E0AE
:107EA000102F00270E291F29000F111F8ED06801E7
:107EB0006FC0863521F484E090D080E0DECF843638
:107EC00009F040C070D06FD0082F6DD080E0C81688
:107ED00080E7D80618F4F601B7BEE895C0E0D1E017
:107EE00062D089930C17E1F7F0E0CF16F0E7DF06D8
:107EF00018F0F601B7BEE89568D007B600FCFDCFD4
:107F0000A601A0E0B1E02C9130E011968C91119780
:107F100090E0982F8827822B932B1296FA010C0160
:107F200087BEE89511244E5F5F4FF1E0A038BF0790
:107F300051F7F601A7BEE89507B600FCFDCF97BE46
:107F4000E89526C08437B1F42ED02DD0F82E2BD052
:107F50003CD0F601EF2C8F010F5F1F4F84911BD097
:107F6000EA94F801C1F70894C11CD11CFA94CF0C13
:107F7000D11C0EC0853739F428D08EE10CD085E9AC
:107F80000AD08FE07ACF813511F488E018D01DD067
:107F900080E101D065CF982F8091C00085FFFCCF94
:107FA0009093C60008958091C00087FFFCCF809118
:107FB000C00084FD01C0A8958091C6000895E0E648
:107FC000F0E098E1908380830895EDDF803219F02E
:107FD00088E0F5DFFFCF84E1DECF1F93182FE3DFCA
:107FE0001150E9F7F2DF1F91089580E0E8DFEE27F6
:047FF000FF270994CA
:027FFE00040479
:0400000300007E007B
:00000001FF
