:100000000C945D000C9485000C9485000C94850084
:100010000C9485000C9485000C9485000C9485004C
:100020000C9485000C9485000C9485000C9485003C
:100030000C9485000C9485000C9485000C9485002C
:100040000C946F020C9485000C94DF020C94B9029E
:100050000C9485000C9485000C9485000C9485000C
:100060000C9485000C94850000000008000201003B
:100070000003040700000000000000000000000072
:10008000250028002B0000000000240027002A0083
:10009000040404040404040402020202020203032E
:1000A0000303030301020408102040800102040836
:1000B0001020010204081020760411241FBECFEF87
:1000C000D8E0DEBFCDBF11E0A0E0B1E0E4EAF9E0A6
:1000D00002C005900D92A831B107D9F721E0A8E13F
:1000E000B1E001C01D92A03CB207E1F710E0CDE500
:1000F000D0E004C02197FE010E94C504CC35D10791
:10010000C9F70E9411030C94D0040C940000E7EA94
:10011000F0E02491E3E9F0E08491882399F090E005
:10012000880F991FFC01EA57FF4FA591B491FC017C
:10013000E458FF4F859194918FB7F894EC91E22B9E
:10014000EC938FBF0895EBE6F0E09491E7EAF0E0DE
:100150002491E3E9F0E0E491EE2309F43CC0992313
:1001600039F1933091F038F49130A9F0923001F5E3
:1001700094B59F7D12C0973091F09830A1F09430E3
:10018000B9F4909180009F7D03C0909180009F778B
:10019000909380000DC094B59F7794BD09C0909155
:1001A000B0009F7703C09091B0009F7D9093B00006
:1001B000F0E0EE0FFF1FE458FF4FA591B4919FB7F9
:1001C000F894811104C08C912095282302C0EC91F1
:1001D0002E2B2C939FBF08953FB7F89480911F0159
:1001E00090912001A0912101B091220126B5A89BF8
:1001F00005C02F3F19F00196A11DB11D3FBFBA2FB9
:10020000A92F982F8827820F911DA11DB11DBC0118
:10021000CD0142E0660F771F881F991F4A95D1F7DD
:1002200008958F929F92AF92BF92CF92DF92EF92FA
:10023000FF926B017C010E94EC004B015C01C11438
:10024000D104E104F104F1F00E94EC00DC01CB01E7
:1002500088199909AA09BB09883E9340A105B105EF
:1002600070F321E0C21AD108E108F10888EE880E87
:1002700083E0981EA11CB11CC114D104E104F10457
:1002800019F7DDCFFF90EF90DF90CF90BF90AF9048
:100290009F908F900895CF92DF92EF92FF920F93ED
:1002A0001F93CF93DF936C017A018B01C0E0D0E004
:1002B000CE15DF0581F0D8016D918D01D601ED914C
:1002C000FC910190F081E02DC6010995892B11F078
:1002D0002196EECF7E01C701DF91CF911F910F9143
:1002E000FF90EF90DF90CF900895089580E090E028
:1002F0000895FC01538D448D252F30E0842F90E02C
:10030000821B930B541710F0CF9608950197089510
:10031000FC01918D828D981761F0828DDF01A80F0D
:10032000B11D5D968C91928D9F5F9F73928F90E02F
:1003300008958FEF9FEF0895FC01918D828D98179E
:1003400031F0828DE80FF11D858D90E008958FEFDB
:100350009FEF0895FC01918D228D892F90E0805CA4
:100360009F4F821B91098F739927089583E291E033
:100370000E94AA0121E0892B09F420E0822F089530
:10038000FC01848DDF01A80FB11DA35ABF4F2C9132
:10039000848D90E001968F739927848FA689B78901
:1003A0002C93A089B1898C91837080648C93938DF8
:1003B000848D981306C00288F389E02D80818F7D9B
:1003C00080830895EF92FF920F931F93CF93DF9353
:1003D000EC0181E0888F9B8D8C8D981305C0E88996
:1003E000F989808185FD26C0F62E0B8D10E00F5F08
:1003F0001F4F0F731127E02E8C8DE8120CC00FB623
:1004000007FCFACFE889F989808185FFF5CFCE0115
:100410000E94C001F1CF8B8DFE01E80FF11DE35A60
:10042000FF4FF0829FB7F8940B8FEA89FB89808198
:1004300080620AC09FB7F894EE89FF896083E889DB
:10044000F98980818370806480839FBF81E090E020
:10045000DF91CF911F910F91FF90EF900895CF936F
:10046000DF93EC01888D8823C9F0EA89FB898081BC
:1004700085FD05C0A889B9898C9186FD0FC00FB68E
:1004800007FCF5CF808185FFF2CFA889B9898C91CF
:1004900085FFEDCFCE010E94C001E7CFDF91CF9164
:1004A000089580E090E0892B29F00E94B601811127
:1004B0000C9400000895009769F0FC010190002061
:1004C000E9F73197AF01481B590BBC0183E291E07A
:1004D0000C944B0180E090E008950E94CB041F92A1
:1004E0000F920FB60F9211242F933F938F939F93E8
:1004F000AF93BF9380911B0190911C01A0911D01AE
:10050000B0911E0130911A0123E0230F2D3720F402
:100510000196A11DB11D05C026E8230F0296A11D5D
:10052000B11D20931A0180931B0190931C01A0938D
:100530001D01B0931E0180911F0190912001A09197
:100540002101B09122010196A11DB11D80931F01CF
:1005500090932001A0932101B0932201BF91AF910C
:100560009F918F913F912F910F900FBE0F901F90F1
:1005700018951F920F920FB60F9211242F933F934D
:100580004F935F936F937F938F939F93AF93BF939B
:10059000EF93FF9383E291E00E94C001FF91EF91FE
:1005A000BF91AF919F918F917F916F915F914F918B
:1005B0003F912F910F900FBE0F901F9018951F9293
:1005C0000F920FB60F9211242F938F939F93EF9357
:1005D000FF93E0913301F09134018081E091390182
:1005E000F0913A0182FD12C0908180913C018F5FB1
:1005F0008F7320913D01821751F0E0913C01F0E0B2
:10060000ED5DFE4F958F80933C0101C08081FF918D
:10061000EF919F918F912F910F900FBE0F901F9090
:100620001895CF93DF93CDB7DEB7A1970FB6F894A7
:10063000DEBF0FBECDBF789484B5826084BD84B523
:10064000816084BD85B5826085BD85B5816085BDCD
:1006500080916E00816080936E0010928100809185
:10066000810082608093810080918100816080930D
:100670008100809180008160809380008091B10032
:1006800084608093B1008091B00081608093B0005D
:1006900080917A00846080937A0080917A008260F1
:1006A00080937A0080917A00816080937A008091B3
:1006B0007A00806880937A001092C100E091330143
:1006C000F091340182E08083E0912F01F0913001BC
:1006D0001082E0913101F09132018FEC8083109211
:1006E0003B01E0913701F091380186E08083E09191
:1006F0003501F0913601808180618083E091350180
:10070000F0913601808188608083E0913501F0911D
:100710003601808180688083E0913501F091360157
:1007200080818F7D80830E9487008AE0882E912CB3
:10073000A12CB12C0BE610E0C0901801D09019014B
:100740008091000190910101C80ED91ED09219012B
:10075000C09218010D2C000CEE08FF08F7FE20C017
:100760006DE283E291E00E94E20122273327A90192
:100770002C193D094E095F0919A2CE0181967C0111
:10078000CA01B901A50194010E94A304605DF701AB
:1007900062937F01211531054105510589F715C087
:1007A000A701960119A2CE0181967C01CA01B90167
:1007B000A50194010E94A304605DF70162937F018B
:1007C000211531054105510589F7C7010E945B02DA
:1007D00042E050E064E171E083E291E00E944B016D
:1007E000E0901801F09019010E948700E114F104D3
:1007F00011F480E005C0FFEFEF16F10421F481E071
:100800000E94A30043C0F80184918330F9F048F4BA
:100810008130B9F08230A1F584B5806284BDE8BC36
:1008200035C08730E9F0883019F1843049F580917E
:100830008000806280938000F0928B00E0928A00BA
:1008400025C084B5806884BDE7BC20C0809180004D
:10085000806880938000F0928900E092880016C042
:100860008091B00080688093B000E092B3000EC029
:100870008091B00080628093B000E092B40006C026
:10088000F0E8EF16F1040CF0BACFB3CF8091180165
:10089000909119011816190664F080910001909149
:1008A0000101919581959109909301018093000137
:1008B00014C08F3F91058CF080910001909101014F
:1008C000919581959109909301018093000168EEC3
:1008D00073E080E090E00E9411016AE070E080E047
:1008E00090E00E9411010E94510226CFE3E2F1E064
:1008F0001382128288EE93E0A0E0B0E084839583B7
:10090000A683B78386E091E09183808385EC90E0B5
:100910009587848784EC90E09787868780EC90E0C9
:10092000918B808B81EC90E0938B828B82EC90E0BA
:10093000958B848B86EC90E0978B868B118E128E34
:10094000138E148E0895A1E21A2EAA1BBB1BFD0163
:100950000DC0AA1FBB1FEE1FFF1FA217B307E4079E
:10096000F50720F0A21BB30BE40BF50B661F771FF6
:10097000881F991F1A9469F76095709580959095D6
:100980009B01AC01BD01CF010895EE0FFF1F059043
:10099000F491E02D099481E090E0F8940C94D00457
:0409A000F894FFCFF9
:1009A400050000000000E2014B0179012F02AA01B9
:0809B40088019C010D0A0000FE
:107E0000112484B714BE81FFF0D085E080938100F7
:107E100082E08093C00088E18093C10086E0809377
:107E2000C20080E18093C4008EE0C9D0259A86E02C
:107E300020E33CEF91E0309385002093840096BBD3
:107E4000B09BFECF1D9AA8958150A9F7CC24DD24C4
:107E500088248394B5E0AB2EA1E19A2EF3E0BF2EE7
:107E6000A2D0813461F49FD0082FAFD0023811F036
:107E7000013811F484E001C083E08DD089C08234E0
:107E800011F484E103C0853419F485E0A6D080C0E4
:107E9000853579F488D0E82EFF2485D0082F10E0AE
:107EA000102F00270E291F29000F111F8ED06801E7
:107EB0006FC0863521F484E090D080E0DECF843638
:107EC00009F040C070D06FD0082F6DD080E0C81688
:107ED00080E7D80618F4F601B7BEE895C0E0D1E017
:107EE00062D089930C17E1F7F0E0CF16F0E7DF06D8
:107EF00018F0F601B7BEE89568D007B600FCFDCFD4
:107F0000A601A0E0B1E02C9130E011968C91119780
:107F100090E0982F8827822B932B1296FA010C0160
:107F200087BEE89511244E5F5F4FF1E0A038BF0790
:107F300051F7F601A7BEE89507B600FCFDCF97BE46
:107F4000E89526C08437B1F42ED02DD0F82E2BD052
:107F50003CD0F601EF2C8F010F5F1F4F84911BD097
:107F6000EA94F801C1F70894C11CD11CFA94CF0C13
:107F7000D11C0EC0853739F428D08EE10CD085E9AC
:107F80000AD08FE07ACF813511F488E018D01DD067
:107F900080E101D065CF982F8091C00085FFFCCF94
:107FA0009093C60008958091C00087FFFCCF809118
:107FB000C00084FD01C0A8958091C6000895E0E648
:107FC000F0E098E1908380830895EDDF803219F02E
:107FD00088E0F5DFFFCF84E1DECF1F93182FE3DFCA
:107FE0001150E9F7F2DF1F91089580E0E8DFEE27F6
:047FF000FF270994CA
:027FFE00040479
:0400000300007E007B
:00000001FF
