:100000000C945D000C9485000C9485000C94850084
:100010000C9485000C9485000C9485000C9485004C
:100020000C9485000C9485000C9485000C9485003C
:100030000C9485000C9485000C9485000C9485002C
:100040000C9435020C9485000C94A5020C947F024C
:100050000C9485000C9485000C9485000C9485000C
:100060000C9485000C94850000000008000201003B
:100070000003040700000000000000000000000072
:10008000250028002B0000000000240027002A0083
:10009000040404040404040402020202020203032E
:1000A0000303030301020408102040800102040836
:1000B0001020010204081020410511241FBECFEFBB
:1000C000D8E0DEBFCDBF11E0A0E0B1E0EAE0F1E1B1
:1000D00002C005900D92A432B107D9F721E0A4E245
:1000E000B1E001C01D92A03DB207E1F710E0CDE5FF
:1000F000D0E004C02197FE010E947808CC35D107DA
:10010000C9F70E94D7020C9483080C940000E7EA18
:10011000F0E02491E3E9F0E08491882399F090E005
:10012000880F991FFC01EA57FF4FA591B491FC017C
:10013000E458FF4F859194918FB7F894EC91E22B9E
:10014000EC938FBF0895EBE6F0E09491E7EAF0E0DE
:100150002491E3E9F0E0E491EE2309F43CC0992313
:1001600039F1933091F038F49130A9F0923001F5E3
:1001700094B59F7D12C0973091F09830A1F09430E3
:10018000B9F4909180009F7D03C0909180009F778B
:10019000909380000DC094B59F7794BD09C0909155
:1001A000B0009F7703C09091B0009F7D9093B00006
:1001B000F0E0EE0FFF1FE458FF4FA591B4919FB7F9
:1001C000F894811104C08C912095282302C0EC91F1
:1001D0002E2B2C939FBF08953FB7F89480912F0149
:1001E00090913001A0913101B091320126B5A89BC8
:1001F00005C02F3F19F00196A11DB11D3FBFBA2FB9
:10020000A92F982F8827820F911DA11DB11DBC0118
:10021000CD0142E0660F771F881F991F4A95D1F7DD
:100220000895CF92DF92EF92FF920F931F93CF9397
:10023000DF936C017A018B01C0E0D0E0CE15DF05C1
:1002400081F0D8016D918D01D601ED91FC91019065
:10025000F081E02DC6010995892B11F02196EECF92
:100260007E01C701DF91CF911F910F91FF90EF9019
:10027000DF90CF900895089580E090E00895FC010C
:10028000538D448D252F30E0842F90E0821B930BFB
:10029000541710F0CF96089501970895FC01918DA1
:1002A000828D981761F0828DDF01A80FB11D5D96D8
:1002B0008C91928D9F5F9F73928F90E008958FEF46
:1002C0009FEF0895FC01918D828D981731F0828DFA
:1002D000E80FF11D858D90E008958FEF9FEF089551
:1002E000FC01918D228D892F90E0805C9F4F821BB5
:1002F00091098F739927089583E391E00E9470011B
:1003000021E0892B09F420E0822F0895FC01848DDF
:10031000DF01A80FB11DA35ABF4F2C91848D90E02F
:1003200001968F739927848FA689B7892C93A0890A
:10033000B1898C91837080648C93938D848D981394
:1003400006C00288F389E02D80818F7D8083089527
:10035000EF92FF920F931F93CF93DF93EC0181E015
:10036000888F9B8D8C8D981305C0E889F9898081D1
:1003700085FD26C0F62E0B8D10E00F5F1F4F0F730B
:100380001127E02E8C8DE8120CC00FB607FCFACFB7
:10039000E889F989808185FFF5CFCE010E94860129
:1003A000F1CF8B8DFE01E80FF11DE35AFF4FF08274
:1003B0009FB7F8940B8FEA89FB89808180620AC01D
:1003C0009FB7F894EE89FF896083E889F989808175
:1003D0008370806480839FBF81E090E0DF91CF9144
:1003E0001F910F91FF90EF900895CF93DF93EC0151
:1003F000888D8823C9F0EA89FB89808185FD05C045
:10040000A889B9898C9186FD0FC00FB607FCF5CF7E
:10041000808185FFF2CFA889B9898C9185FFEDCFC6
:10042000CE010E948601E7CFDF91CF91089580E051
:1004300090E0892B29F00E947C0181110C9400002E
:100440000895009769F0FC0101900020E9F73197C9
:10045000AF01481B590BBC0183E391E00C941101DF
:1004600080E090E008950E947E081F920F920FB6E0
:100470000F9211242F933F938F939F93AF93BF932A
:1004800080912B0190912C01A0912D01B0912E0112
:1004900030912A0123E0230F2D3720F40196A11D6E
:1004A000B11D05C026E8230F0296A11DB11D2093A2
:1004B0002A0180932B0190932C01A0932D01B093DE
:1004C0002E0180912F0190913001A0913101B091C6
:1004D00032010196A11DB11D80932F01909330012F
:1004E000A0933101B0933201BF91AF919F918F9151
:1004F0003F912F910F900FBE0F901F9018951F9254
:100500000F920FB60F9211242F933F934F935F9347
:100510006F937F938F939F93AF93BF93EF93FF93CB
:1005200083E391E00E948601FF91EF91BF91AF912B
:100530009F918F917F916F915F914F913F912F91FB
:100540000F900FBE0F901F9018951F920F920FB62D
:100550000F9211242F938F939F93EF93FF93E0912A
:100560004301F09144018081E0914901F0914A01F9
:1005700082FD12C0908180914C018F5F8F7320911A
:100580004D01821751F0E0914C01F0E0ED5CFE4F1F
:10059000958F80934C0101C08081FF91EF919F91D5
:1005A0008F912F910F900FBE0F901F901895CF93A2
:1005B000DF93CDB7DEB7A2970FB6F894DEBF0FBEBC
:1005C000CDBF789484B5826084BD84B5816084BDDC
:1005D00085B5826085BD85B5816085BD80916E00E1
:1005E000816080936E001092810080918100826012
:1005F000809381008091810081608093810080914F
:1006000080008160809380008091B100846080933D
:10061000B1008091B00081608093B00080917A0039
:10062000846080937A0080917A00826080937A005F
:1006300080917A00816080937A0080917A0080684E
:1006400080937A001092C100E0914301F09144013F
:1006500082E08083E0913F01F09140011082E091BF
:100660004101F09142018FEC808310924B01E091A7
:100670004701F091480186E08083E0914501F091C7
:100680004601808180618083E0914501F0914601BF
:10069000808188608083E0914501F09146018081EE
:1006A00080688083E0914501F091460180818F7DD3
:1006B00080830E94870022242A94312C20E42093F6
:1006C0007C0080917A00806480937A0080917A0027
:1006D00086FDFCCF609178008091790070E0782BE6
:1006E000072E000C880B990B0E94A1066B017C0160
:1006F0004B015C0120E030E44CE955E40E94F70531
:10070000609326017093270180932801909329011B
:10071000A7019601C701B6010E944A08882319F073
:1007200084E191E01AC026013701E89477F82FEFB1
:100730003FEF4FE75FE7C301B2010E944A08811112
:100740000FC02FEF3FEF4FE75FE7C301B2010E94F9
:10075000F20518162CF488E191E00E9421029CC059
:100760002FEF3FEF4FE75FE4C701B6010E9492070A
:1007700018161CF48CE191E0F0CF2FEF3FEF4FE71C
:100780005FECC701B6010E94F20587FDF3CF20E0C0
:1007900030E0A901C701B6010E94F20587FF0BC036
:1007A0006DE283E391E00E94A80146015701B7FA88
:1007B000B094B7F8B0942AE037ED43EA5BE3C501A3
:1007C000B4010E946F056B017C010E9470064B0111
:1007D0005C010E949F069B01AC01C701B6010E940B
:1007E0006E052B013C0119A27E0181E2E80EF11C8D
:1007F000EAA20F2DC501B4012AE030E040E050E04C
:100800000E94560849015A01605DF70162937F0119
:10081000232B242B252B71F7CF010E9421026EE29E
:1008200083E391E00E94A80113E01150A9F120E0B8
:1008300030E040E251E4C301B2010E9497074B014E
:100840005C010E9470069B0140E050E019A2EAA002
:10085000F02E3B016A01CA01B9012AE030E040E014
:1008600050E00E945608605DF70162937F012115F8
:1008700031054105510579F7CF010E942102B301ED
:10088000C6010E949F069B01AC01C501B4010E94F4
:100890006E052B013C01C9CF80E291E00E9421024C
:1008A0008090260190902701A0902801B090290106
:1008B000A501940160E070E088E493E40E94F705EC
:1008C0000E940A080E94DB050E9469067B01609174
:1008D0002401709125018091000190910101680F20
:1008E000791F7093250160932401072E000C880B5B
:1008F000990B0E94A1069B01AC010E949707A501DC
:1009000094010E9497074B015C0120E030E0A901AF
:100910000E94920720E030E040E05FE387FD05C0E1
:10092000C501B4010E946F0504C0C501B4010E9455
:100930006E050E9469068101061B170B17FF02C096
:1009400000E010E00E9487000115110511F480E01D
:1009500004C00F3F110521F481E00E94A30043C0B1
:10096000EBE6F0E084918330F9F048F48130B9F09F
:100970008230A1F584B5806284BD08BD34C0873063
:10098000E9F0883019F1843049F580918000806267
:100990008093800010938B0000938A0024C084B55C
:1009A000806884BD07BD1FC08091800080688093EF
:1009B0008000109389000093880015C08091B000DA
:1009C00080688093B0000093B3000DC08091B000A8
:1009D00080628093B0000093B40005C00038110518
:1009E0000CF0BACFB4CF8091240190912501181654
:1009F000190684F0809100019091010191958195F3
:100A000091099093010180930001109225011092A9
:100A100024010EC08E159F055CF08091000190911D
:100A200001019195819591099093010180930001B5
:100A30000E94EC006B017C018FE0882E912CA12C90
:100A4000B12C0E94EC00DC01CB018C199D09AE0990
:100A5000BF09883E9340A105B10598F3F1E08F1AD4
:100A60009108A108B10828EEC20E23E0D21EE11CB5
:100A7000F11C81149104A104B10419F70E9417021A
:100A80001DCEE3E3F1E01382128288EE93E0A0E052
:100A9000B0E084839583A683B78386E091E0918359
:100AA000808385EC90E09587848784EC90E097873D
:100AB000868780EC90E0918B808B81EC90E0938B2B
:100AC000828B82EC90E0958B848B86EC90E0978B08
:100AD000868B118E128E138E148E08955058BB275C
:100AE000AA270E9486050C9440070E94320738F01E
:100AF0000E94390720F039F49F3F19F426F40C9432
:100B00002F070EF4E095E7FB0C940007E92F0E94F5
:100B1000510758F3BA17620773078407950720F047
:100B200079F4A6F50C948B070EF4E0950B2EBA2FF2
:100B3000A02D0B01B90190010C01CA01A0011124E3
:100B4000FF27591B99F0593F50F4503E68F11A168F
:100B5000F040A22F232F342F4427585FF3CF469520
:100B600037952795A795F0405395C9F77EF41F1642
:100B7000BA0B620B730B840BBAF09150A1F0FF0F0C
:100B8000BB1F661F771F881FC2F70EC0BA0F621FF8
:100B9000731F841F48F4879577956795B795F795E8
:100BA0009E3F08F0B0CF9395880F08F09927EE0F7D
:100BB0009795879508950E94730790F09F3748F4A2
:100BC000911116F40C948C0760E070E080E89FE3CC
:100BD000089526F01B16611D711D811D0C940607DA
:100BE0000C9421070E94DC0608F481E008950E941D
:100BF0000B060C9440070E94390758F00E943207F8
:100C000040F029F45F3F29F00C94000751110C9437
:100C10008C070C942F070E94510768F39923B1F3B6
:100C2000552391F3951B550BBB27AA276217730712
:100C3000840738F09F5F5F4F220F331F441FAA1FA6
:100C4000A9F335D00E2E3AF0E0E832D09150504062
:100C5000E695001CCAF72BD0FE2F29D0660F771F10
:100C6000881FBB1F261737074807AB07B0E809F0F6
:100C7000BB0B802DBF01FF2793585F4F3AF09E3F7B
:100C8000510578F00C9400070C948C075F3FE4F357
:100C9000983ED4F3869577956795B795F7959F5FBE
:100CA000C9F7880F911D9695879597F90895E1E00A
:100CB000660F771F881FBB1F621773078407BA0769
:100CC00020F0621B730B840BBA0BEE1F88F7E095C4
:100CD00008950E9470066894B1110C948C070895D1
:100CE0000E94590788F09F5798F0B92F9927B7515C
:100CF000B0F0E1F0660F771F881F991F1AF0BA95C0
:100D0000C9F714C0B13091F00E948B07B1E008958B
:100D10000C948B07672F782F8827B85F39F0B93F7D
:100D2000CCF3869577956795B395D9F73EF4909572
:100D30008095709561957F4F8F4F9F4F0895E894F0
:100D400009C097FB3EF490958095709561957F4F13
:100D50008F4F9F4F9923A9F0F92F96E9BB279395C1
:100D6000F695879577956795B795F111F8CFFAF4D1
:100D7000BB0F11F460FF1BC06F5F7F4F8F4F9F4F02
:100D800016C0882311F096E911C0772321F09EE860
:100D9000872F762F05C0662371F096E8862F70E0C6
:100DA00060E02AF09A95660F771F881FDAF7880FA0
:100DB0009695879597F90895990F0008550FAA0BF6
:100DC000E0E8FEEF16161706E807F907C0F012165E
:100DD0001306E407F50798F0621B730B840B950B61
:100DE00039F40A2661F0232B242B252B21F40895B6
:100DF0000A2609F4A140A6958FEF811D811D089553
:100E000097F99F6780E870E060E00895882371F4A7
:100E1000772321F09850872B762F07C0662311F493
:100E200099270DC09051862B70E060E02AF09A95CA
:100E3000660F771F881FDAF7880F9695879597F9C1
:100E400008959F3F31F0915020F4879577956795ED
:100E5000B795880F911D9695879597F908959FEFFF
:100E600080EC089500240A94161617061806090641
:100E7000089500240A941216130614060506089510
:100E8000092E0394000C11F4882352F0BB0F40F498
:100E9000BF2B11F460FF04C06F5F7F4F8F4F9F4FD8
:100EA000089557FD9058440F551F59F05F3F71F05A
:100EB0004795880F97FB991F61F09F3F79F08795C1
:100EC0000895121613061406551FF2CF4695F1DF4A
:100ED00008C0161617061806991FF1CF86957105DA
:100EE0006105089408950E945907A0F0BEE7B9175C
:100EF00088F4BB279F3860F41616B11D672F782F32
:100F00008827985FF7CF869577956795B11D93955C
:100F10009639C8F30895E894BB2766277727CB0155
:100F200097F908950E94DC0608F48FEF08950E9457
:100F3000AA070C9440070E94320738F00E94390734
:100F400020F0952311F00C9400070C942F07112426
:100F50000C948C070E94510770F3959FC1F3950F75
:100F600050E0551F629FF001729FBB27F00DB11D2D
:100F7000639FAA27F00DB11DAA1F649F6627B00DBD
:100F8000A11D661F829F2227B00DA11D621F739FA6
:100F9000B00DA11D621F839FA00D611D221F749FB4
:100FA0003327A00D611D231F849F600D211D822FFB
:100FB000762F6A2F11249F5750409AF0F1F0882322
:100FC0004AF0EE0FFF1FBB1F661F771F881F91504F
:100FD0005040A9F79E3F510580F00C9400070C94F7
:100FE0008C075F3FE4F3983ED4F386957795679539
:100FF000B795F795E7959F5FC1F7FE2B880F911D79
:101000009695879597F9089519F416F40C942F077F
:101010000C9421070E945907B8F39923C9F3B6F33A
:101020009F57550B87FF0E944F080024A0E640EA17
:10103000900180585695979528F4805C660F771F2D
:10104000881F20F026173707480730F4621B730B00
:10105000840B202931294A2BA69517940794202523
:1010600031254A2758F7660F771F881F20F026176B
:101070003707480730F4620B730B840B200D311DCA
:10108000411DA09581F7B901842F9158880F96953D
:10109000879508950E94DC06880B990B089591505E
:1010A0005040660F771F881FD2F70895A1E21A2ECD
:1010B000AA1BBB1BFD010DC0AA1FBB1FEE1FFF1FFC
:1010C000A217B307E407F50720F0A21BB30BE40B4C
:1010D000F50B661F771F881F991F1A9469F7609593
:1010E0007095809590959B01AC01BD01CF0108954D
:1010F000EE0FFF1F0590F491E02D099481E090E040
:0A110000F8940C948308F894FFCFD4
:10110A00010000000000A80111013F01F501700172
:10111A004E0162016E616E00696E66006F7666004E
:04112A000D0A0000AA
:107E0000112484B714BE81FFF0D085E080938100F7
:107E100082E08093C00088E18093C10086E0809377
:107E2000C20080E18093C4008EE0C9D0259A86E02C
:107E300020E33CEF91E0309385002093840096BBD3
:107E4000B09BFECF1D9AA8958150A9F7CC24DD24C4
:107E500088248394B5E0AB2EA1E19A2EF3E0BF2EE7
:107E6000A2D0813461F49FD0082FAFD0023811F036
:107E7000013811F484E001C083E08DD089C08234E0
:107E800011F484E103C0853419F485E0A6D080C0E4
:107E9000853579F488D0E82EFF2485D0082F10E0AE
:107EA000102F00270E291F29000F111F8ED06801E7
:107EB0006FC0863521F484E090D080E0DECF843638
:107EC00009F040C070D06FD0082F6DD080E0C81688
:107ED00080E7D80618F4F601B7BEE895C0E0D1E017
:107EE00062D089930C17E1F7F0E0CF16F0E7DF06D8
:107EF00018F0F601B7BEE89568D007B600FCFDCFD4
:107F0000A601A0E0B1E02C9130E011968C91119780
:107F100090E0982F8827822B932B1296FA010C0160
:107F200087BEE89511244E5F5F4FF1E0A038BF0790
:107F300051F7F601A7BEE89507B600FCFDCF97BE46
:107F4000E89526C08437B1F42ED02DD0F82E2BD052
:107F50003CD0F601EF2C8F010F5F1F4F84911BD097
:107F6000EA94F801C1F70894C11CD11CFA94CF0C13
:107F7000D11C0EC0853739F428D08EE10CD085E9AC
:107F80000AD08FE07ACF813511F488E018D01DD067
:107F900080E101D065CF982F8091C00085FFFCCF94
:107FA0009093C60008958091C00087FFFCCF809118
:107FB000C00084FD01C0A8958091C6000895E0E648
:107FC000F0E098E1908380830895EDDF803219F02E
:107FD00088E0F5DFFFCF84E1DECF1F93182FE3DFCA
:107FE0001150E9F7F2DF1F91089580E0E8DFEE27F6
:047FF000FF270994CA
:027FFE00040479
:0400000300007E007B
:00000001FF
